S00D00005061626C6F2E7372656329
S113000060C000007BC0000079C0000077C0000021
S113001075C0000073C0000071C000006FC0000014
S11300206DC000006BC0000069C0000067C0000024
S113003065C00000A3C3000061C000005FC00000F1
S11300405DC000005BC0000059C0000057C0000044
S113005055C0000053C0000051C000004FC0000054
S11300604DC000004BC0000049C0000047C0000064
S113007045C0000043C0000041C000003FC0000074
S11300803DC000003BC0000039C00000AC01E101EC
S11300904903490336029602030323034903540226
S11300A04303FC011A02770266037703780378039B
S11300B0770377037703770377037703770377036C
S11300C0770311241FBECFEFD0E4DEBFCDBF11E014
S11300D0A0E0B1E0E0E3F9E000E00BBF02C007906C
S11300E00D92A438B107D9F721E0A4E8B1E001C02A
S11300F01D92AD39B207E1F7D0D318C481CFCF93A5
S1130100DF93CDB7DEB781E01AD00000DF91CF9145
S11301100895CF93DF93CDB7DEB784E690E0ACD0FB
S113012088E30DD086E00BD08FE009D081E007D0C2
S11301308AE090E0A1D00000DF91CF910895CF93A1
S1130140DF931F92CDB7DEB789838BE290E02BE279
S113015030E0F90120812F7BFC01208388E290E0CC
S11301602981FC0120838BE290E02BE230E0F9014D
S113017020812068FC01208300008BE290E02BE2C8
S113018030E0F90120812F77FC01208382E090E0A8
S113019073D000000F90DF91CF910895CF93DF9338
S11301A01F92CDB7DEB789838BE290E02BE230E07B
S11301B0F90120812064FC01208388E290E02981F8
S11301C0FC0120838BE290E02BE230E0F9012081F6
S11301D02068FC01208300008BE290E02BE230E0F9
S11301E0F90120812F77FC01208381E090E044D045
S11301F000000F90DF91CF910895CF93DF9300D04B
S113020000D0CDB7DEB78A837C836B8378DF8A81A5
S113021089830FC0898191E0980F998318D08B81CD
S11302209C819C012F5F3F4F3C832B83FC01808189
S1130230B5DF8B819C81FC018081882359F7000004
S11302400F900F900F900F90DF91CF910895CF935F
S1130250DF931F92CDB7DEB789838981813120F482
S1130260898181586CDF03C08981815568DF000072
S11302700F90DF91CF910895CF93DF9300D000D0FA
S113028000D0CDB7DEB79E838D831A82198213C046
S11302901C821B8206C000008B819C8101969C837A
S11302A08B838B819C8187309340ACF389819A81C5
S11302B001969A83898329813A818D819E812817A9
S11302C0390734F3000026960FB6F894DEBF0FBE4C
S11302D0CDBFDF91CF910895CF93DF93CDB7DEB734
S11302E080E290E0FC018081882F90E08170992762
S11302F021E0892B09F020E0822F80938F0180E296
S113030090E0FC018081809582708093900180E26E
S113031090E0FC018081809584708093910180E25B
S113032090E0FC0180818095887080939201809197
S1130330980190919901CC01A0E0B0E040E050E038
S11303402DE030E0841B950B2817390708F4A1C170
S11303508A5B9F4FFC01E1C280918F01882361F485
S113036080919001882341F480919101882321F4A4
S113037080919201882361F081E090E0909399014B
S113038080939801809193018F5F8093930183C13F
S113039080918F01882309F07EC180919001882388
S11303A009F079C180919101882309F074C1809189
S11303B09201882309F06FC110929901109298015B
S11303C06AC18BE090E0909399018093980185E253
S11303D090E020919601222F30E0220F331F20500D
S11303E03F4FF90120813181FC01208380919601E6
S11303F08F5F8093960156C1809193018A3060F497
S11304008BE090E0909399018093980180919301FF
S11304108F5F8093930141C1809193018A3008F4E6
S11304203CC18CE090E090939901809398011092E4
S1130430930133C19091950180919601981738F0FA
S113044081E090E090939901809398012BC184E01E
S113045090E0909399018093980185E290E0FC01EB
S1130460108266E171E081E0C8DE1CC180918F01D9
S1130470882399F480919001882379F480919101E3
S1130480882359F480919201882339F484E090E020
S1130490909399018093980105C185E090E0909331
S11304A0990180939801FEC080918F01882309F0FF
S11304B0F6C080919001882309F0F1C080919101E8
S11304C0882309F0ECC080919201882309F0E7C0E9
S11304D081E090E090939901809398016AE271E041
S11304E081E08BDE80918401805D58DED8C08091EC
S11304F08F01882309F0D5C080919001882309F0E9
S1130500D0C080919101882309F0CBC080919201E1
S1130510882309F0C6C084E090E090939901809309
S113052098016AE371E081E068DEBBC090918F01BD
S113053080919001982B80919101982B8091920148
S1130540892B80939C0180919701882F90E0880FDC
S1130550991F80509F4FFC012081318180919C0123
S1130560882F90E02817390709F03EC09091970131
S1130570809195019817A0F4809184018A3080F4C9
S1130580809197018F5F809397018DE090E0909325
S11305909901809398016EE471E081E02EDE82C0BF
S11305A0809184018A30A8F4809195018F5F8093B3
S11305B095011092960110929701809184018F5FAA
S11305C08093840189E090E090939901809398014D
S11305D069C087E090E090939901809398016EE55B
S11305E071E081E00ADE5EC086E090E090939901BC
S11305F0809398016AE671E081E0FFDD80918401D7
S1130600805DCCDD4FC080918F01882399F4809167
S11306109001882379F480919101882359F4809181
S11306209201882339F487E090E0909399018093B4
S1130630980138C0109299011092980167E771E00F
S113064081E0DBDD2FC080918F01882399F48091B4
S11306509001882379F480919101882359F4809141
S11306609201882339F487E090E090939901809374
S1130670980118C0109299011092980167E771E0EF
S113068081E0BBDD0FC081E090E0909399018093FD
S11306909801000007C0000005C0000003C000006E
S11306A001C000008091980190919901CC01A0E0D3
S11306B0B0E040E050E02CE030E0841B950B2817BC
S11306C03907B0F08C5A9F4FFC0127C11092860164
S11306D01092850110928401109288011092870172
S11306E010928901109294011092950101C00000AA
S11306F00000DF91CF910895CF93DF93CDB7DEB79C
S113070081E890E02BE0FC01208388E890E02DE76D
S113071030E0FC01318320838FE690E022E0FC018D
S1130720208384E890E0FC01118210828091120100
S113073090911301A0911401B091150180938B0144
S113074090938C01A0938D01B0938E018FE590E07E
S11307502FE530E0F90120812068FC0120830000AE
S1130760DF91CF910895CF93DF93CDB7DEB781E0CA
S113077080938A010000DF91CF9108951F920F9218
S113078000905F000F92112400905B000F922F9352
S11307903F934F935F936F937F938F939F93AF9305
S11307A0BF93EF93FF93CF93DF93CDB7DEB78091E1
S11307B08B0190918C01A0918D01B0918E010197D4
S11307C0A109B10980938B0190938C01A0938D01B1
S11307D0B0938E0180918B0190918C01A0918D0139
S11307E0B0918E01892B8A2B8B2B89F4BCDF8091ED
S11307F0120190911301A0911401B09115018093FD
S11308008B0190938C01A0938D01B0938E01000015
S1130810DF91CF91FF91EF91BF91AF919F918F9114
S11308207F916F915F914F913F912F910F90009223
S11308305B000F9000925F000F901F901895CF936C
S1130840DF9300D000D0CDB7DEB769837A838B8382
S11308509C8389819A81AB81BC818093120190939E
S11308601301A0931401B09315018091120190918A
S11308701301A0911401B091150180938B01909301
S11308808C01A0938D01B0938E0100000F900F9006
S11308900F900F90DF91CF910895CF93DF93CDB751
S11308A0DEB7109299011092980187E290E02FEF41
S11308B0FC01208388E290E0FC0110828AE290E04F
S11308C02FEFFC0120838BE290E0FC01108281E297
S11308D090E0FC01108282E290E02FEFFC01208383
S11308E084E290E02FEFFC01208385E290E0FC019C
S11308F0108262E370E080E090E0A1DFFDDE09DCBD
S113090067E771E081E079DCE7DC000080918A012F
S11309108823E1F310928A01F7CFEE0FFF1F002422
S1130920001C0BBE0790F691E02D0994F894FFCFBC
S1130930010002000100040008000100040002009C
S113094001000100000057616974696E6720666FD9
S11309507220496E7075743A200043757272656E28
S1130960742053636F72652020004E65787420698B
S11309706E70757420706C6561736520200052651B
S11309806C6561736520427574746F6E210047470E
S11309902C20596F752057696E0047472C20596FDA
S11309A075204C6F736500507265737320537461C6
S10709B07274000059
S9030000FC
